{
  "contractName": "wave",
  "abi": [
    {
      "anonymous": false,
      "inputs": [
        {
          "indexed": true,
          "internalType": "address",
          "name": "from",
          "type": "address"
        },
        {
          "indexed": false,
          "internalType": "uint256",
          "name": "timestamp",
          "type": "uint256"
        },
        {
          "indexed": false,
          "internalType": "string",
          "name": "message",
          "type": "string"
        }
      ],
      "name": "newWave",
      "type": "event"
    },
    {
      "inputs": [
        {
          "internalType": "string",
          "name": "_msg",
          "type": "string"
        }
      ],
      "name": "insertWave",
      "outputs": [],
      "stateMutability": "nonpayable",
      "type": "function"
    },
    {
      "inputs": [],
      "name": "getTotalWaves",
      "outputs": [
        {
          "internalType": "uint256",
          "name": "",
          "type": "uint256"
        }
      ],
      "stateMutability": "view",
      "type": "function",
      "constant": true
    },
    {
      "inputs": [],
      "name": "getAllWaves",
      "outputs": [
        {
          "components": [
            {
              "internalType": "string",
              "name": "msg",
              "type": "string"
            },
            {
              "internalType": "address",
              "name": "add",
              "type": "address"
            },
            {
              "internalType": "uint256",
              "name": "time",
              "type": "uint256"
            }
          ],
          "internalType": "struct wave.Wave[]",
          "name": "",
          "type": "tuple[]"
        }
      ],
      "stateMutability": "view",
      "type": "function",
      "constant": true
    }
  ],
  "bytecode": "0x60806040526000805534801561001457600080fd5b50610b0c806100246000396000f3fe608060405234801561001057600080fd5b50600436106100415760003560e01c8063019be16f146100465780639a2cdc0814610062578063bd43a90814610080575b600080fd5b610060600480360381019061005b9190610487565b61009e565b005b61006a6101d3565b60405161007791906104e9565b60405180910390f35b6100886101dc565b60405161009591906106e5565b60405180910390f35b6000808154809291906100b090610736565b9190505550600060405180606001604052808381526020013373ffffffffffffffffffffffffffffffffffffffff1681526020014281525090506001819080600181540180825580915050600190039060005260206000209060030201600090919091909150600082015181600001908161012b919061098a565b5060208201518160010160006101000a81548173ffffffffffffffffffffffffffffffffffffffff021916908373ffffffffffffffffffffffffffffffffffffffff1602179055506040820151816002015550503373ffffffffffffffffffffffffffffffffffffffff167f827fc0b1433d32e3710239670a4c525416496a64d64f2374a5e4ea595c0738c642846040516101c7929190610aa6565b60405180910390a25050565b60008054905090565b60606001805480602002602001604051908101604052809291908181526020016000905b828210156103245783829060005260206000209060030201604051806060016040529081600082018054610233906107ad565b80601f016020809104026020016040519081016040528092919081815260200182805461025f906107ad565b80156102ac5780601f10610281576101008083540402835291602001916102ac565b820191906000526020600020905b81548152906001019060200180831161028f57829003601f168201915b505050505081526020016001820160009054906101000a900473ffffffffffffffffffffffffffffffffffffffff1673ffffffffffffffffffffffffffffffffffffffff1673ffffffffffffffffffffffffffffffffffffffff16815260200160028201548152505081526020019060010190610200565b50505050905090565b6000604051905090565b600080fd5b600080fd5b600080fd5b600080fd5b6000601f19601f8301169050919050565b7f4e487b7100000000000000000000000000000000000000000000000000000000600052604160045260246000fd5b6103948261034b565b810181811067ffffffffffffffff821117156103b3576103b261035c565b5b80604052505050565b60006103c661032d565b90506103d2828261038b565b919050565b600067ffffffffffffffff8211156103f2576103f161035c565b5b6103fb8261034b565b9050602081019050919050565b82818337600083830152505050565b600061042a610425846103d7565b6103bc565b90508281526020810184848401111561044657610445610346565b5b610451848285610408565b509392505050565b600082601f83011261046e5761046d610341565b5b813561047e848260208601610417565b91505092915050565b60006020828403121561049d5761049c610337565b5b600082013567ffffffffffffffff8111156104bb576104ba61033c565b5b6104c784828501610459565b91505092915050565b6000819050919050565b6104e3816104d0565b82525050565b60006020820190506104fe60008301846104da565b92915050565b600081519050919050565b600082825260208201905092915050565b6000819050602082019050919050565b600081519050919050565b600082825260208201905092915050565b60005b8381101561056a57808201518184015260208101905061054f565b60008484015250505050565b600061058182610530565b61058b818561053b565b935061059b81856020860161054c565b6105a48161034b565b840191505092915050565b600073ffffffffffffffffffffffffffffffffffffffff82169050919050565b60006105da826105af565b9050919050565b6105ea816105cf565b82525050565b6105f9816104d0565b82525050565b6000606083016000830151848203600086015261061c8282610576565b915050602083015161063160208601826105e1565b50604083015161064460408601826105f0565b508091505092915050565b600061065b83836105ff565b905092915050565b6000602082019050919050565b600061067b82610504565b610685818561050f565b93508360208202850161069785610520565b8060005b858110156106d357848403895281516106b4858261064f565b94506106bf83610663565b925060208a0199505060018101905061069b565b50829750879550505050505092915050565b600060208201905081810360008301526106ff8184610670565b905092915050565b7f4e487b7100000000000000000000000000000000000000000000000000000000600052601160045260246000fd5b6000610741826104d0565b91507fffffffffffffffffffffffffffffffffffffffffffffffffffffffffffffffff820361077357610772610707565b5b600182019050919050565b7f4e487b7100000000000000000000000000000000000000000000000000000000600052602260045260246000fd5b600060028204905060018216806107c557607f821691505b6020821081036107d8576107d761077e565b5b50919050565b60008190508160005260206000209050919050565b60006020601f8301049050919050565b600082821b905092915050565b6000600883026108407fffffffffffffffffffffffffffffffffffffffffffffffffffffffffffffffff82610803565b61084a8683610803565b95508019841693508086168417925050509392505050565b6000819050919050565b600061088761088261087d846104d0565b610862565b6104d0565b9050919050565b6000819050919050565b6108a18361086c565b6108b56108ad8261088e565b848454610810565b825550505050565b600090565b6108ca6108bd565b6108d5818484610898565b505050565b5b818110156108f9576108ee6000826108c2565b6001810190506108db565b5050565b601f82111561093e5761090f816107de565b610918846107f3565b81016020851015610927578190505b61093b610933856107f3565b8301826108da565b50505b505050565b600082821c905092915050565b600061096160001984600802610943565b1980831691505092915050565b600061097a8383610950565b9150826002028217905092915050565b61099382610530565b67ffffffffffffffff8111156109ac576109ab61035c565b5b6109b682546107ad565b6109c18282856108fd565b600060209050601f8311600181146109f457600084156109e2578287015190505b6109ec858261096e565b865550610a54565b601f198416610a02866107de565b60005b82811015610a2a57848901518255600182019150602085019450602081019050610a05565b86831015610a475784890151610a43601f891682610950565b8355505b6001600288020188555050505b505050505050565b600082825260208201905092915050565b6000610a7882610530565b610a828185610a5c565b9350610a9281856020860161054c565b610a9b8161034b565b840191505092915050565b6000604082019050610abb60008301856104da565b8181036020830152610acd8184610a6d565b9050939250505056fea26469706673582212209d4dec94c744e0f127b35b0596fd7d41ca6a2a43faadc128a85a4281416e223b64736f6c63430008110033",
  "immutableReferences": {},
  "source": "//SPDX-License-Identifier: UNLICENSED\r\npragma solidity ^0.8.6;\r\n\r\ncontract wave {\r\n    uint totalWaves = 0;\r\n\r\n    struct Wave {\r\n        string msg;\r\n        address add;\r\n        uint time;\r\n    }\r\n\r\n    Wave[] waves;\r\n\r\n    event newWave(address indexed from, uint timestamp, string message);\r\n    \r\n    function insertWave(string memory _msg) public {\r\n        totalWaves++;\r\n        Wave memory w = Wave(_msg, msg.sender, block.timestamp);\r\n        waves.push(w);\r\n        emit newWave(msg.sender, block.timestamp, _msg);\r\n    }\r\n\r\n    function getTotalWaves() public view returns(uint) {\r\n        return totalWaves;\r\n    }\r\n\r\n    function getAllWaves() public view returns(Wave[] memory) {\r\n        return waves;\r\n    }\r\n}",
  "sourcePath": "E:\\Blockchain Development\\Projects\\Wave_Project\\Server\\contracts\\wave.sol",
  "compiler": {
    "name": "solc",
    "version": "0.8.17+commit.8df45f5f.Emscripten.clang"
  },
  "schemaVersion": "3.4.11",
  "updatedAt": "2023-01-14T14:16:10.686Z",
  "networkType": "ethereum",
  "devdoc": {
    "kind": "dev",
    "methods": {},
    "version": 1
  },
  "userdoc": {
    "kind": "user",
    "methods": {},
    "version": 1
  }
}